:020000040800F2
:10000000F8060020D1020008D9020008DB0200082F
:10001000DD020008DF020008E10200080000000025
:10002000000000000000000000000000E3020008E3
:10003000E502000800000000E7020008E9020008ED
:10004000EB020008EB020008EB020008EB020008DC
:10005000EB020008EB020008EB020008EB020008CC
:10006000EB020008EB020008EB020008EB020008BC
:10007000EB020008EB020008EB020008EB020008AC
:10008000EB020008EB020008EB020008EB0200089C
:10009000EB020008EB020008EB020008EB0200088C
:1000A000EB020008EB020008EB020008EB0200087C
:1000B000EB020008EB020008EB020008EB0200086C
:1000C000EB020008EB020008EB020008EB0200085C
:1000D000EB020008EB020008EB020008EB0200084C
:1000E000EB020008EB020008EB02000800F002F847
:1000F00000F03FF80AA090E8000C82448344AAF183
:100100000107DA4501D100F034F8AFF2090EBAE880
:100110000F0013F0010F18BFFB1A43F0010318473B
:100120005C1C00007C1C0000103A24BF78C878C119
:10013000FAD8520724BF30C830C144BF04680C60ED
:10014000704700000023002400250026103A28BF35
:1001500078C1FBD8520728BF30C148BF0B60704739
:10016000782901F0F383002070471FB51FBD10B53B
:1001700010BD01F0A4FD1146FFF7F7FF01F03DFBB4
:1001800001F0C2FD03B4FFF7F2FF03BC01F0CAFDAA
:10019000484810B5016841F0010101604168464AD4
:1001A000114041600168454A11400160016821F435
:1001B00080210160416821F4FE0141604FF41F017C
:1001C00081600021C16200F033F83D494FF00060CA
:1001D000086010BD30B5374B58683A4A3A4910F0BC
:1001E0000C0003D0042801D0082801D00A6015E0D3
:1001F00058685C6800F470104FF0020514F4803FFA
:1002000005EB904007D0DC6A04F00F04641CB2FBDD
:10021000F4F24243EAE72D4A5043086058682A4AFC
:10022000C0F30310121D105C0A68C2400A6030BDA2
:100230000CB500221F4800920192016841F4803100
:1002400001604FF4A063016801F40031019100994D
:10025000491C0091019911B900999942F3D10168A3
:10026000890324D5012101914168416041684160C1
:1002700041684160416821F47C114160416841F46A
:1002800098114160016841F0807101600168890145
:10029000FCD5416821F003014160416841F0020151
:1002A00041604168C1F381010229FAD10CBD01927C
:1002B0000CBD0000001002400000FFF8FFFFF6FE3A
:1002C00008ED00E000127A000000002000093D0067
:1002D0000948804709480047FEE7FEE7FEE7FEE7DA
:1002E000FEE7FEE7FEE7FEE7FEE7FEE70448054916
:1002F000054A064B7047000091010008ED00000818
:10030000F8000020F8060020F8020020F802002083
:100310008F4910B5884206D10121042000F057FA18
:10032000002104203BE08B49884206D101210820AE
:1003300000F04DFA0021082031E08749884206D1BB
:100340000121102000F043FA0021102027E083490A
:10035000884206D10121202000F039FA0021202016
:100360001DE07F49884206D10121402000F02FFA8C
:100370000021402013E07B49884206D101218020E2
:1003800000F025FA0021802009E0774988420AD14F
:1003900084150121204600F01AFA00212046BDE80C
:1003A000104000F014BA10BD10B50121084600F04D
:1003B0000EFA0021BDE81040012000F008BAF0B5A7
:1003C000CC78002204F00F03E40601D58C78234397
:1003D0000C784FF00F0C14F0FF0F4FF0010E1BD0F4
:1003E00005680E880EFA02F42640A64210D1960047
:1003F0000CFA06F725EA070703FA06F5CE783D431F
:10040000282E02D0482E02D002E0446100E00461B0
:10041000521C082AE5D305600A88FF2A1CD94468C3
:10042000002202F108060EFA06F50E882E40AE42B2
:100430000ED196000CFA06F7BC4303FA06F7CE7805
:100440003C43282E00D14561CE78482E00D105616D
:10045000521C082AE5D34460F0BD4FF6FF710180BD
:10046000022181700421C170704702460020926809
:100470000A4200D001207047806880B2704702466F
:100480000020D2680A4200D001207047C06880B2C4
:10049000704701617047416170470AB1016170475F
:1004A00041617047C160704741F48032826181616F
:1004B00082618169806970472C4B10B51A684FF6CC
:1004C0008074224042EA00100843186010BD284999
:1004D000C8617047F0B5254C002801DAE36900E0F7
:1004E0006368450D2E0185B2C0F30157B540C0F3D6
:1004F0000342032F05D0C6020AD503269640B34314
:1005000007E023F07062636823F07063636002E0C9
:10051000AB4343F0706201B12A43002801DAE26183
:10052000F0BD6260F0BD10B58A0721F003040F49E9
:10053000120F21440F238C6893409C438C608B687E
:10054000904003438B6010BD0949C1F8DC0070473F
:1005500000080140000C014000100140001401405F
:1005600000180140001C0140002001400000014033
:1005700000002042AC48016841F00101016041687F
:10058000AA4A114041600168A94A1140016001680E
:1005900021F480210160416821F4FE0141604FF4A3
:1005A0001F0181600021C16270479F490A6822F4DF
:1005B00080320A600A6822F480220A60B0F5803F27
:1005C00007D0B0F5802F03D1086840F4A020086060
:1005D0007047086840F48030F9E703460020590965
:1005E000914A01290AD002290AD0516A03F01F0258
:1005F000012393400B4200D0012070471168F5E7BA
:10060000116AF3E718B500204FF4A0640090312080
:10061000FFF7E3FF0099491C0091A14201D0002897
:10062000F5D03120FFF7D9FF002800D0012018BDF8
:100630007D4A116821F0F80141EAC000106070475E
:100640007C4908607047784B5A68084322F474125A
:10065000104358607047774908667047724B10B571
:10066000DA6A754C084322401043D86210BD6E4AC6
:10067000516821F003010143516070476A484068A6
:1006800000F00C007047684A516821F0F001014306
:1006900051607047644A516821F4E0610143516040
:1006A0007047614A516821F4605141EAC0005060CE
:1006B00070475D4A0029517A01D0014300E081432F
:1006C000517270475B49C1F8D8007047564A51686B
:1006D00021F440410143516070475349002281F8A1
:1006E000202081F82020012802D0042802D10520F2
:1006F00081F8200070475149086070474A490A6AEA
:1007000002430A6270474D4944390860704730B56A
:10071000454A51684A4B11F00C0103D0042901D01D
:10072000082901D0036015E05168546801F4701184
:100730004FF0020514F4803F05EB914107D0D46AD5
:1007400004F00F04641CB3FBF4F34B43EAE73D4BA6
:100750005943016051680F2303EA11113A4B5C5C65
:100760000168E14041605468072505EA14241C5DD6
:1007700021FA04F48460546805EAD4241B5DD9404E
:10078000C1605268032303EA92322F4B1B1F9A5C0D
:10079000B1FBF2F1016130BD234A0029516901D05A
:1007A000014300E08143516170471F4A002991696C
:1007B00001D0014300E08143916170471A4A00294A
:1007C000D16901D0014300E08143D1617047164AED
:1007D0000029D16801D0014300E08143D160704716
:1007E000114A0029116901D0014300E081431161E0
:1007F000704712494039086070470E49C864704715
:100800000949C87170470848416A41F080714162E6
:100810007047054A0146002092680A4200D0012034
:100820007047014988727047001002400000FFF8CD
:10083000FFFFF6FE00004242F0FFFEFF800442424E
:1008400000127A0000093D0018000020994910B5F7
:1008500088420AD1841401212046FFF7B8FF2046C0
:10086000BDE810400021FFF7B2BF9349884202D192
:100870000121041404E0914988420AD10121C413E2
:100880002046FFF7ADFF2046BDE810400021FFF7EE
:10089000A7BF10BD30B502884C8802F441530A88C6
:1008A000CD8822438C882C4322430C8922434C89D7
:1008B00022438C892243CC8922431A430280828BB3
:1008C00022F400628283098A018230BDF0B50546B8
:1008D0000C4602200021AA8B85B001264FF240036E
:1008E0001A40AA832884AF8BA268022A21D0A0884C
:1008F00000B102266846FFF70AFFE1880098B1F5CB
:10090000007F2CD07101B0FBF1F000EB8000A168FA
:100910004000B0FBF1F0401D80B20A21B0FBF1F0C5
:1009200000F00101401A4FF6FF72C0F34F0002EAD7
:100930000121821EFE2A01D302200021E288084301
:1009400002432A8420886188A2890843A188114330
:100950000843384340F40060A88305B0F0BD000AA6
:10096000D3E70021018041808180C18001814181E4
:100970008181C1810721018270470021018041806E
:100980008180C180022282608181704700290188B4
:1009900002D041F0400101E021F0400101807047A8
:1009A0000029818B02D041F4806101E021F4806153
:1009B00081837047090901238B40002A828899B2FC
:1009C00001D00A4300E08A4382807047002A82886F
:1009D00001D00A4300E08A438280704781817047DA
:1009E00080897047A1F57E420188FF3A02D041F428
:1009F000807101E021F480710180704700298188B5
:100A000002D041F0040101E021F00401818070472F
:100A1000028822F40062028002880A430280704742
:100A2000018841F48051018070470029018802D07B
:100A300041F4005101E021F4005101807047012987
:100A400001D0008B7047808A7047008A7047B1F5EB
:100A5000804F018803D021F480410180704741F428
:100A60008041FAE70246002012890A4200D00120A4
:100A70007047C9430181704730B501F00F0301256C
:100A8000024605FA03F40020A3B2090905FA01F4AD
:100A90009188A4B2128921401A4202D0002900D0C4
:100AA000012030BD01F00F0201219140C9430181B5
:100AB000704700000030014000380040003C00401A
:100AC000FD4A116801F03801014311607047FA498D
:100AD0000A6822F008020A600A6802430A60704746
:100AE000F5490A6822F010020A600A6802430A60A7
:100AF0007047F148F1494160F14941607047EE4863
:100B0000EE494160EE4941607047EB48016941F0B0
:100B1000800101617047E848016941F0800101618D
:100B20007047E5490420CA68D20701D00120704708
:100B3000CA68520701D502207047C968C906FBD5AB
:100B40000320704700B50346FFF7EBFF02E0FFF715
:100B5000E8FF5B1E012803D0002B00D1052000BD5B
:100B6000002BF4D1FAE770B505464FF43026304635
:100B7000FFF7E8FF042811D1CF4C206940F00200B4
:100B800020616561206940F0400020613046FFF738
:100B9000D9FF216941F6FD721140216170BD30B568
:100BA0004FF430252846FFF7CDFF042810D1C24C62
:100BB000206940F004002061206940F0400020617D
:100BC0002846FFF7BFFF216941F6FB721140216102
:100BD00030BD00B50346FFF7A4FF02E0FFF7A1FF19
:100BE0005B1E012803D0002B00D1052000BD002B87
:100BF000F4D1FAE730B54FF430252846FFF7E9FF86
:100C0000042810D1AC4C206940F004002061206918
:100C100040F0400020612846FFF7DBFF216941F6E4
:100C2000FB721140216130BDA3490020C9698907C9
:100C300000D50120704770B5A525FFF7F5FF00B17D
:100C400000254FF430263046FFF77CFF042827D1DB
:100C5000994C9A48A0609A48A060206940F0200012
:100C60002061206940F0400020613046FFF76AFFB4
:100C700041F6EF7604280ED1206941F6DF71084075
:100C80002061206940F0100020618E4805804FF4FB
:100C90000050FFF757FF052802D02169314021613C
:100CA00070BDF8B5064600204FF4005C00900D467C
:100CB0006046FFF747FF042816D17F4C206940F0BB
:100CC0000100206135806046FFF73CFF41F6FE776A
:100CD000042806D1B61C280C009630806046FFF729
:100CE00031FF216939402161F8BDF0B506464FF466
:100CF00000570D463846FFF725FF04280CD16E4CEF
:100D0000206940F00100206135803846FFF71AFF66
:100D10002169BA1E11402161F0BDF0B506464FF4BD
:100D200000570D463846FFF70DFF042813D1624CDB
:100D30006248A0606248A060206940F01000206115
:100D400035803846FFF7FEFE052804D0216941F6BC
:100D5000EF7211402161F0BD2DE9F041C043C7B2EF
:100D6000C0F30726C0F30745040E4FF40058404671
:100D7000FFF7E8FE04283CD1DFF83CC14F49CCF82E
:100D800008104F49CCF80810DCF8101041F01001A1
:100D9000CCF81010FF2F07D04A4808300780404693
:100DA000FFF7D0FE04281BD1FF2E07D045480A309C
:100DB00006804046FFF7C6FE042811D1FF2D07D05C
:100DC00040480C3005804046FFF7BCFE042807D1A0
:100DD000FF2C07D03B480E3004804046FFF7B2FEA0
:100DE000052806D0DCF8101041F6EF721140CCF85F
:100DF0001010BDE8F08170B505464FF4302630463E
:100E0000FFF7A0FE042818D12B4C2C48A0602C48DA
:100E1000A060206940F020002061206940F040007F
:100E200020613046FFF78EFE41F6DF71042805D0C1
:100E3000052802D022690A40226170BD206908405D
:100E40002061206940F0100020611E480DB1002192
:100E500000E0A52101803046FFF774FE0528ECD0A4
:100E6000216941F6EF721140216170BDF0B5124C5D
:100E70000746124816460D46A0601148A0604FF480
:100E8000005C6046FFF75EFE042814D1206940F044
:100E90001000206135430B493D43891C45F0F800A3
:100EA00008806046FFF74EFE052804D0216941F610
:100EB000EF7211402161F0BD00200240230167451F
:100EC000AB89EFCD00F8FF1F1C48C0698008704750
:100ED0001A48006A7047194900200968890600D538
:100EE00001207047154A0029116901D0014300E033
:100EF00081431161704701460020104A012903D047
:100F0000D2680A4203D17047D169C907FBD00120DA
:100F100070470A49C860704708490420CA68D20768
:100F200001D001207047CA68520701D502207047DE
:100F3000C968C906FBD503207047000000200240A5
:100F40000288520601D40020704702899207FCD023
:100F500002891206F9D4818101898907FCD00189AF
:100F60000906F9D48089C0B2704770B50546F648C5
:100F7000007800F080FCF54C208840F04000208094
:100F80007E2000EA450040F080012046FFF7D8FFB0
:100F900000212046FFF7D4FF0546208820F04000BE
:100FA000208000F064FC284670BD70B50646E64817
:100FB0000D46007800F05FFCE44C208840F04000D3
:100FC00020807E2000EA46012046FFF7B9FF29462F
:100FD0002046FFF7B5FF208820F040002080BDE8C4
:100FE000704000F044BC70B50D460446FFF7BDFFED
:100FF00040EA05012046BDE87040D6E710B5142050
:10100000FFF7B3FF800704D10321BDE8104014208F
:10101000E9E710BD0F210120C7E708B50121042031
:10102000FFF7C3FB03208DF8020010208DF80300AA
:101030001E20ADF800006946C548FFF7C0F908BD9D
:1010400010B5FFF7EAFF0321C04800F080FAFFF770
:10105000E1FF8D212A20FFF7A8FF3E212B20FFF77B
:10106000A4FF1E212D20FFF7A0FF00212C20FFF759
:101070009CFF70212620FFF798FF40211520FFF7E5
:1010800094FF3D211120FFF790FFBDE81040B5E728
:1010900070B50D460446FFF768FF20EA05012046BB
:1010A000BDE8704081E72DE9FF5F0025DDF838B02D
:1010B00017468A4681464FF002082E460C2805D076
:1010C000B9F10E0F04D11225102601E07725302644
:1010D00045F080010220FFF768FF80210420FFF720
:1010E000D7FF80210A20FFF77EFF00210120FFF7B4
:1010F0005CFF002406E01AF804100920FFF755FFF2
:10110000641CA4B2BC42F6D349460120FFF74DFF50
:10111000B9F10C0F03D180210D20FFF764FF4FF4CC
:10112000FA640420FFF721FF641E24040746240C00
:1011300003D0F80701D13742F3D080210D20FFF70B
:10114000A7FF3CB10620FFF710FF10F01B0F05D0E2
:101150004FF0020804B04046BDE8F09F2F404FF02A
:101160000008F80701D04FF00108B9F10C0FF1D1D8
:101170000A20FFF7FAFE05460C20FFF7F6FE10F0F6
:1011800007004FEAC50104D008390844ABF8000055
:1011900001E0ABF8001025B1102D00D91025002476
:1011A00008E00125FBE70920FFF7DFFE039908555A
:1011B000641CA4B2AC42F6D3CCE72DE9F0410E4654
:1011C0000746154604210520FFF762FF80210A200B
:1011D000FFF709FF002405E0395D0920FFF7E5FE70
:1011E000641CE4B2B442F7D303210120FFF7DDFE13
:1011F000FF240520FFF7B9FE641E14F0FF0401D0A0
:101200004007F6D52220FFF7B0FE28702120FFF717
:10121000ACFE6870BDE8F0810EB550208DF804007A
:1012200000208DF805000DF10602022101A8FFF74C
:10123000C4FF02A801AB0090042219460C20FFF75E
:1012400032FF0EBD7CB50546002421460D20FFF778
:10125000ACFE932028702020687001A82B460090D7
:10126000022219460C20FFF71EFF00280AD1002297
:10127000A95C521C4C40D2B2042AF9D3A95CA14209
:1012800000D002207CBD7CB50C46054607210D2010
:10129000FFF78BFE257001A8234600900122194616
:1012A0000C20FFF700FF18B9BDF80410102900D07A
:1012B00002207CBD70B5054601462620FFF7E3FFFE
:1012C000040003D12846FFF7BDFF0446FFF7A4FF43
:1012D000204670BD10B50022835C8C5CA34201D017
:1012E000022010BD521CD2B2052AF5D3002010BD39
:1012F00003211420CCE610B586B093218DF804109C
:1013000070218DF80510002101AA435C5418491C76
:10131000C9B2A3700529F8D3072101A8D21DFFF790
:101320004CFF04A801AB0090092219460C20FFF7DE
:10133000BAFE18B9BDF81000182802D0002006B077
:1013400010BD9DF80400FAE728000020003001409D
:101350000008014030B585B08DF804008DF8051007
:10136000002001A9145C0D18401CC0B2AC70062806
:10137000F8D300200C181A5C401CC0B2227204285A
:10138000F8D304A800900B460C220E20FFF78BFE2A
:10139000040004D10820FFF7E8FD000700D4022470
:1013A00005B0204630BD1CB50C4630212170607060
:1013B000A21C02212046FFF700FF01A8234600904F
:1013C000042219460C20FFF76EFE18B9BDF8041070
:1013D000902900D002201CBD70B588B00C46A02119
:1013E0008DF8041001AD8DF8050002212846AA1CD5
:1013F000FFF7E3FE06AE01AB042219460C2000966F
:10140000FFF751FE38BBBDF81800042823D19DF822
:10141000040000F00F000A281DD10020215C29548F
:10142000401CC0B21028F9D305AA102101A8FFF76B
:10143000C4FE01AB122219460C200096FFF733FEC2
:1014400048B9BDF81810042905D19DF8041001F021
:101450000F010A2900D0022008B070BD08B5012193
:101460000803FFF7A2F903208DF8020018208DF879
:101470000300E020ADF800006946C748FEF79FFF73
:1014800008BD10B5032801D1FFF7E8FF10BD10B566
:10149000032801D1FFF7E2FF10BD2DE9F04F85B021
:1014A0000446DDE90EA9984615468B466846FFF7C7
:1014B00058FABA48BA4F0026844208D1B86940F4B5
:1014C0008050B8615846FFF7E2FFADF80460B548B8
:1014D000844208D1F86940F48040F8615846FFF72B
:1014E000D0FFADF80460ADF80C80ADF800604FF4AB
:1014F0000070ADF80E90ADF802A0ADF80A0045B14D
:101500000120012D08D00221022D08D0032D0BD07F
:101510000EE0ADF8066004E0ADF8066006E0ADF858
:101520000610ADF8086003E0ADF80610ADF808004D
:10153000208820F04000208069462046FFF7AAF965
:10154000208840F04000208005B0BDE8F08F2DE9F4
:10155000FC410446914800250F464FF482768442B0
:1015600005D1CDE9006520230022FFF796FF8D48C5
:10157000844206D1CDE90065202300223946FFF7D9
:101580008CFFBDE8FC812DE9FC4104468348002521
:10159000174688464FF48276844204D1CDE900652F
:1015A0002023FFF77AFF7F488442EAD1CDE9006526
:1015B00020233A464146FFF770FFE2E72DE9FC475A
:1015C0000446DDE90A6575481F469046894684420F
:1015D00005D1CDE9006513463A46FFF75EFF714835
:1015E000844206D1CDE9006543463A464946FFF7B5
:1015F00054FFBDE8FC8730B585B00C00054617D018
:101600006846FFF784F86548854201D1039B00E0F6
:10161000029B00200125421C05FA02F1B3FBF1F107
:10162000A14202D8C00005B030BDD0B20828F2D324
:101630003820F8E702880388C2F3C02223F0400371
:1016400003800129018808D021F40061018001880C
:1016500041F0400101801046704741F40061F5E718
:1016600030B50488640614D50489A407FCD0048925
:101670002406F9D400240AE00D5D85810589AD07B3
:10168000FCD005892D06F9D485891555641C9C422A
:10169000F2D330BD10B503885B0613D503899B07D1
:1016A000FCD003891B06F9D4002309E0CC5C8481BB
:1016B0000489A407FCD004892406F9D484895B1C1E
:1016C0009342F3D310BD30B50488640613D5048962
:1016D000A407FCD004892406F9D4002409E08281FF
:1016E0000589AD07FCD005892D06F9D485890D55EE
:1016F000641C9C42F3D330BD30B50488640616D513
:101700000489A407FCD004892406F9D400240CE041
:1017100031F8145085810589AD07FCD005892D0667
:10172000F9D4858922F81450641C9C42F0D330BD52
:1017300010B503885B0614D503899B07FCD0038989
:101740001B06F9D400230AE031F813408481048990
:10175000A407FCD004892406F9D484895B1C934235
:10176000F2D310BD30B50488640614D50489A407EB
:10177000FCD004892406F9D400240AE0828105897A
:10178000AD07FCD005892D06F9D4858921F81450C0
:10179000641C9C42F2D330BD00080140003001407F
:1017A00000100240003800403D493E48192200F038
:1017B00095B92DE9F0413B4D394E193DFFF799F9A7
:1017C0003046FFF7D0F9384F002430462968FFF73C
:1017D00068FA641CA4B22D1D361D7870062CF4D353
:1017E000BDE8F041FFF791B910B51020FFF778F987
:1017F000BDE810400220FFF763B90EB5FEF7C8FC44
:10180000FFF7F2FFFFF71CFC2848022101600421CA
:1018100001600821016010210160234C214EE41D6C
:10182000E51F193E2048C01DFFF744FD0028F9D1EF
:101830002878D5F8071000EB800030440160E97A81
:101840000171FFF7B6FFFFF7AFFF1749891C481D6D
:10185000FFF740FDA0782279E1788DE80700114874
:101860006378227812A1193000F034F8DAE70F49D2
:101870001E20086070470D49012808D0022809D0B1
:1018800003280AD0042801D18004086070474FF46F
:101890000030FAE74FF48020F7E74FF40020F4E738
:1018A00000A000084D000020280000201008014082
:1018B0003078253032780A3078253032780A30781E
:1018C000253032780A3078253032780A3078253061
:1018D000327800000FB41CB5074B06AA7B4469465A
:1018E0000090059800F0A1F90020694600F0B0F9D9
:1018F0001CBC5DF814FB00007103000070B50446C9
:1019000085690068C10601D5302600E02026C007A1
:1019100007D070BDD4E9012130469047206A401CB1
:1019200020626D1EF6D570BD70B5044685690078DD
:10193000C00707D170BDD4E9012120209047206A5B
:10194000401C20626D1EF6D570BD000070B50446C7
:101950000D4621461068AFF300802188090502D5A5
:101960000F4A7A4402E00E4A7A440E32002104F112
:10197000240305E000F00F060009965D5E54491C43
:101980000028F7D120780023000704D5702D02D05D
:1019900009B1022311322046BDE8704000F0E6B8DC
:1019A000DA0300002DE9F05F894604464FF0000A93
:1019B000DFF824B1FB44C0F820A02046E168884746
:1019C00000287DD0252806D0D4E901219047206A3F
:1019D000401C2062F1E700255F462046E168884709
:1019E0002028064607DB312E05D2B81910F8200C46
:1019F00008B10543F1E7A80701D525F00405C4F8AF
:101A00001CA00027C4F818A02A2E09D0304600F0E8
:101A100090F938B304EB8708303EC8F8186019E035
:101A200059F8041B204604EB87029161E16888475E
:101A3000012F064618D1E069002820DA25F020059C
:101A40001DE0D8F8180000EB800006EB40003038AD
:101A5000C8F818002046E1688847064600F069F992
:101A60000028EED1012F0AD02E2E08D12046E168A1
:101A700088477F1C0646022F45F02005C4DBA0697D
:101A8000002803DA404245F00105A061E80701D0D3
:101A900025F01005A6B1A6F14100192802D820367C
:101AA00045F400654A463146204625604D46FEF71E
:101AB00057FB60B1012807D0ED1D25F0070000E0BD
:101AC00007E000F1080978E705F1040975E73046F9
:101AD0007AE7206ABDE8F09FB0030000032A40F2D5
:101AE000308010F0030C00F0158011F8013BBCF1C0
:101AF000020F624498BF11F801CB00F8013B38BFD8
:101B000011F8013BA2F1040298BF00F801CB38BFE5
:101B100000F8013B11F0030300F09F80083AC0F089
:101B2000088051F8043B083A51F804CBA0E80810AB
:101B3000F5E7121D5CBF51F8043B40F8043BAFF3DE
:101B40000080D20724BF11F8013B11F801CB48BF38
:101B500011F8012B24BF00F8013B00F801CB48BF6E
:101B600000F8012B70477047704770472DE9F04728
:101B70000D4699469246044600F1240801688806FD
:101B800004D5E06921F01001216000E00120A842A5
:101B900001DD471B00E00027A1697A1902EB09006B
:101BA000081AA0612078C00602D42046FFF7A6FEDE
:101BB000002608E0D4E901211AF806009047206ABF
:101BC000401C761C20624E45F4DB2078C0060AD506
:101BD0002046FFF793FE06E0D4E90121302090472C
:101BE000206A401C2062381EA7F10107F4DC07E0E0
:101BF000D4E9012118F805009047206A401C2062B2
:101C0000281EA5F10105F3DC2046FFF78DFE2078A4
:101C1000000602D50220BDE8F0870120FBE70000A6
:101C200001694A1C02610878704700B58FB0CDE9A0
:101C300001310021059105497944CDE90310114690
:101C40006846FFF7AFFE0FB000BD0000E5FFFFFFE5
:101C50000A6802F8010B0A60704710B5203AC0F01C
:101C60000B80B1E81850203AA0E81850B1E818509D
:101C7000A0E81850BFF4F5AF5FEA027C24BFB1E8DA
:101C80001850A0E8185044BF18C918C0BDE810404B
:101C90005FEA827C24BF51F8043B40F8043B08BF54
:101CA0007047D20728BF31F8023B48BF11F8012B1B
:101CB00028BF20F8023B48BF00F8012B704775464B
:101CC00000F02CF8AE4605006946534620F00700A8
:101CD000854618B020B5FEF709FBBDE820404FF05F
:101CE00000064FF000074FF000084FF0000B21F006
:101CF0000701AC46ACE8C009ACE8C009ACE8C009D3
:101D0000ACE8C0098D46704710B50446AFF30080BB
:101D10002046BDE81040FEF735BA00000048704785
:101D20009800002001491820ABBEFEE72600020003
:101D3000704730380A2801D20120704700207047D0
:101D400030313233343536373839414243444546F1
:101D500040305800303132333435363738396162EB
:101D600063646566403078000400000800000000ED
:101D70000000000200010000100000009C1D00088F
:101D8000000000203400000028010008D01D0008D9
:101D900034000020C40600004401000800366E0133
:101DA000000000000000000001020304060708090B
:101DB00002040608000000000102030401020304FB
:101DC00006070809010043DC52B67B000000000052
:04000005080000ED02
:00000001FF
